:100000000C9455170C9474170C9474170C94741763
:100010000C9474170C94571D0C9474170C9474174B
:100020000C9474170C9474170C94171D0C9474177B
:100030000C9474170C9474170C9474170C94741714
:100040000C9474170C941D1D0C9474170C94741755
:100050000C9474170C9474170C9474170C947417F4
:100060000C9474170C9474170C9474170C947417E4
:100070000C9474170C9474170C9474170C947417D4
:100080000C9474170C9474170C9474170C94291D09
:100090000C947417EA20E120D820CF20C620BD2080
:1000A000B420AB20A2209920902087207E207520AC
:1000B0006C2063205A20512048202420202F480003
:1000C00052504D004655454C0054454D50002500BA
:1000D0004C00434F4E53554D5054494F4E002E0047
:1000E0006C2F00313030004B4D204C4546540044BD
:1000F000495354414E4345002020202020202020F9
:100100000054524950004B4D004D6F6E00547565C0
:100110000057656400546875004672690053617445
:100120000053756E004A616E00466562004D617253
:1001300000417072004D6179004A756E004A756C1D
:100140000041756700536570004F6374004E6F7611
:1001500000446563005E5E005E5E5E00202020203D
:10016000202020202020202020202020202020208F
:100170000041646A757374207468652074696D65E4
:1001800000EA03C51A4D0105FF02FF19B40104A7D7
:10019000010D18BA0103AA02A217EB030600000022
:1001A000000000000004040404000004000A0A0A1D
:1001B00000000000000A0A1F0A1F0A0A00040F14A8
:1001C0000E051E040018190204081303000C121473
:1001D0000815120D000C04080000000000020408BD
:1001E00008080402000804020202040800000415C2
:1001F0000E150400000004041F04040000000000A9
:10020000000C0408000000001F00000000000000B7
:1002100000000C0C0000010204081000000E111375
:100220001519110E00040C040404040E000E110133
:100230000204081F001F02040201110E0002060A38
:10024000121F0202001F101E0101110E00060810ED
:100250001E11110E001F010204040404001E1111DE
:100260000E11110E000E11110F01020C00000C0CEA
:10027000000C0C0000000C0C000C04080002040828
:10028000100804020000001F001F00000008040204
:1002900001020408000E110102040004000E110105
:1002A0000D15150E000E1111111F1111001E090957
:1002B0000E09091E000E11101010110E001E090962
:1002C0000909091E001F10101F10101F001F101019
:1002D0001E101010000E11101311110F001111112A
:1002E0001F111111000E04040404040E0007020281
:1002F0000202120C00111214181412110010101026
:100300001010101F00111B151511111100111919D2
:1003100015131311000E11111111110E001E1111E0
:100320001E101010000E11111115121D001E1111BA
:100330001E141211000E11100E01110E001F0404E4
:1003400004040404001111111111110E00111111F6
:1003500011110A040011111115151B110011110AB8
:10036000040A1111001111110A040404001F0102F2
:100370000408101F000E08080808080E00001008E6
:1003800004020100000E02020202020E00040A1121
:1003900000000000000000000000001F0010080422
:1003A000000000000000000E010F110F00101016D9
:1003B0001911111E0000000E1110110E0001010D87
:1003C0001311110F0000000E111F100E0002050482
:1003D0000E04040400000D13130D010E001010167E
:1003E000191111110004000C0404040E000200068F
:1003F0000202120C000808090A0C0A09000C040485
:100400000404040E0000001A15151515000000164E
:10041000191111110000000E1111110E0000161912
:100420001916101000000D13130D01010000001625
:10043000191010100000000F101E011F0008081CEA
:1004400008080906000000121212120D0000001127
:1004500011110A04000000111115150A0000001105
:100460000A040A110000001111130D010E00001FF3
:100470000204081F00020404080404020004040427
:10048000000404040008040402040408000815021F
:1004900000000000000000000000000000630003F6
:1004A000002A0002002000020020000200040001D7
:1004B00000040001002C0004002C00040063000371
:1004C00000200002002A00020014001400F00008BE
:1004D00000E0011000150001002A000200D9000709
:1004E00000150001002C00040004000100000000C1
:1004F00000000000000000000000000000000000FC
:1005000000000000000000000000000000000000EB
:1005100000000000000000000000000000000000DB
:1005200000000000000000000000000000000000CB
:1005300000000000000000000000000000000000BB
:1005400000000000000000000000000000000000AB
:10055000000000000000000000000000000000009B
:10056000000000000000000000000000000000008B
:10057000000000000000000000000000000000007B
:10058000000000000000000000000000000000006B
:10059000000000000000000000000000000000005B
:1005A000000000000000000000000000000000004B
:1005B000000000000000000000000000000000003B
:1005C000000000000000000000000000000000002B
:1005D000000000000000000000000000000000001B
:1005E000000000000000000000000000000000000B
:1005F00000000000000000000000000000000000FB
:1006000000000000000000000000000000000000EA
:1006100000000000000000000000000000000000DA
:1006200000000000000000000000000000000000CA
:1006300000000000000000000000000000000000BA
:1006400000000000000000000000000000000000AA
:10065000000000000000000000000000000000009A
:10066000000000000000000000000000000000008A
:10067000000000000000000000000000000000007A
:10068000000000000000000000000000000000006A
:10069000000000000000000000000000000000005A
:1006A000000000000000000000000000000000004A
:1006B000000000000000000000000000000000003A
:1006C0007FFE0000000000000000000000000000AD
:1006D00000000000FFFF000000000000000000001C
:1006E00000000000000000017FFE8000000000000C
:1006F000000000000000000000000003BFFDC0007B
:1007000000000000000000000000000000000007E2
:10071000C003E00000000000000000000000000036
:1007200000000007C003E00000000000000000001F
:100730000000000000000007C003E000000000000F
:10074000000000000000000000000007C003E000FF
:100750000000000000000000000000000000000792
:10076000C003E000000000000000000000000000E6
:1007700000000007C003E0000000000000000000CF
:100780000000000000000007C003E00000000000BF
:10079000000000000000000000000007C003E000AF
:1007A0000000000000000000000000000000000742
:1007B000C003E007FF07FF0000000000000000008A
:1007C00000000007C003E00BFE8BFE80000000006D
:1007D00000000000000000038001C01C01DC01C01B
:1007E0000000000000000000000000017FFE801CEF
:1007F00001DC01C00000000000000000000000005B
:10080000FFFF001C01DC01C0000000000000000030
:10081000000000017FFE801C01DC01C00000000020
:100820000000000000000003BFFDC01C01DC01C08F
:10083000000000000000000000000007C003E01CF2
:1008400001DC01C000000000000000000000000703
:10085000C003E01C01DC01C000000000000000003B
:1008600000000007C003E0080088008000000000CE
:100870000000000000000007C003E007FF07FF00C2
:10088000000000000000000000000007C003E00BB3
:10089000FE8BFE800000000000000000000000074A
:1008A000C003E01C01DC01C00000000000000000EB
:1008B00000000007C003E01C01DC01C000000000D4
:1008C0000000000000000007C003E01C01DC01C0C4
:1008D000000000000000000000000007C003E01C52
:1008E00001DC01C000000000000000000000000763
:1008F000C003E01C01DC01C000000000000000009B
:1009000000000003BFFDC01C01DC01C000000000AE
:1009100000000000000000017FFE801C01DC01C01F
:10092000000000000000000000000000FFFF000BBE
:10093000FE8BFE80000000000000000000000000B0
:100940007FFE0007FF07FF0000000000000000001E
:100950000000000000000000000000000000000097
:100960000000000000000000000000000000000087
:100970000000000000000000000000000000000077
:100980000000000000000000000000000000000067
:100990000000000000000000000000000000000057
:1009A0000000000000000000000000000000000047
:1009B000001FF800001FF800001FF81FF81F80003C
:1009C000001FF81FF82FF400040FF400000FF42F9D
:1009D000F02F4000002FF42FF4700E000E000E00D8
:1009E00000000E700030C00000700E700E700E001F
:1009F0000E000E0000000E700030C00000700E707F
:100A00000E700E000E000E0000000E700030C000D0
:100A100000700E700E700E000E000E0000000E70C2
:100A20000030C00000700E700E700E000E000E0040
:100A300000000E70002F400000700E700E700E004F
:100A40000E000E0000000E70001F800000700E707F
:100A50000E700E000E000E0000000E700000000070
:100A600000700E700E20040004000400000004203A
:100A7000000000000020042004000000001FF80017
:100A80007F1FF81FF81FF000001FF81FF820040058
:100A9000042FF0003E2FF00FF42FE000002FF40F92
:100AA000F4700E000E700000007000000E300000A8
:100AB00000700E000E700E000E700000007000003E
:100AC0000E30000000700E000E700E000E70000060
:100AD000007000000E30000000700E000E700E005E
:100AE0000E700000007000000E30000000700E005C
:100AF0000E700E000E700000007000000E3000003E
:100B000000700E000E700E000E70000000700000ED
:100B10000E30000000700E000E700E000E7000000F
:100B2000007000000E30000000700E000E2FF40068
:100B3000042FF000002FF00FF42FE000002FF40F2F
:100B4000F41FF800001FF800001FF81FF81FF00046
:100B5000001FF81FF8000000000000000000000067
:100B60000000000000000000000000000000000085
:100B70000000000000000000000000000000000075
:100B80000000000000000000000000000000000065
:100B90000000000000000000000000000000000055
:101160000000000000000000000000000007FFE099
:101170000FFFF017FFE83BFFDC7C003E7C003E7C6D
:10118000003E7C003E7C003E7C003E7C003E7C00BD
:101190003E7C003E7C003E38001C10000800000031
:1011A00010000838001C7C003E7C003E7C003E7C29
:1011B000003E7C003E7C003E7C003E7C003E7C008D
:1011C0003E7C003E3BFFDC17FFE80FFFF007FFE02F
:1011D00000000000000000000800001C00003E00AD
:1011E000003E00003E00003E00003E00003E0000C9
:1011F0003E00003E00003E00003E00001C000008D3
:1012000000000000000800001C00003E00003E003E
:10121000003E00003E00003E00003E00003E000098
:101220003E00003E00003E00001C000008000000E0
:1012300000000007FFE00FFFF007FFE803FFDC00FE
:10124000003E00003E00003E00003E00003E000068
:101250003E00003E00003E00003E00003E00001C3C
:1012600007FFE80FFFF017FFE03BFFC07C00007CAA
:1012700000007C00007C00007C00007C00007C0002
:10128000007C00007C00007C00003BFFC017FFE0FA
:101290000FFFF007FFE007FFE00FFFF007FFE80395
:1012A000FFDC00003E00003E00003E00003E00006B
:1012B0003E00003E00003E00003E00003E00003EBA
:1012C00000001C07FFE80FFFF007FFE803FFDC004A
:1012D000003E00003E00003E00003E00003E0000D8
:1012E0003E00003E00003E00003E00003E03FFDCEA
:1012F00007FFE80FFFF007FFE0000000000000100C
:10130000000838001C7C003E7C003E7C003E7C00D7
:101310003E7C003E7C003E7C003E7C003E7C003EED
:101320007C003E38001C17FFE80FFFF007FFE803C2
:10133000FFDC00003E00003E00003E00003E0000DA
:101340003E00003E00003E00003E00003E00003E29
:1013500000001C00000800000000000007FFE00F74
:10136000FFF017FFE03BFFC07C00007C00007C002A
:10137000007C00007C00007C00007C00007C000001
:101380007C00007C000038000017FFE00FFFF00732
:10139000FFE803FFDC00003E00003E00003E0000CE
:1013A0003E00003E00003E00003E00003E00003EC9
:1013B00000003E03FFDC07FFE80FFFF007FFE00738
:1013C000FFE00FFFF017FFE03BFFC07C00007C0058
:1013D000007C00007C00007C00007C00007C0000A1
:1013E0007C00007C00007C000038000017FFE00F4C
:1013F000FFF017FFE83BFFDC7C003E7C003E7C00FA
:101400003E7C003E7C003E7C003E7C003E7C003EFC
:101410007C003E7C003E3BFFDC17FFE80FFFF0073F
:10142000FFE007FFE00FFFF007FFE803FFDC00002D
:101430003E00003E00003E00003E00003E00003E38
:1014400000003E00003E00003E00003E00001C0088
:10145000000800000000000800001C00003E000022
:101460003E00003E00003E00003E00003E00003E08
:1014700000003E00003E00003E00001C000008008E
:10148000000000000007FFE00FFFF017FFE83BFF40
:10149000DC7C003E7C003E7C003E7C003E7C003ECE
:1014A0007C003E7C003E7C003E7C003E7C003E3862
:1014B000001C17FFE80FFFF017FFE83BFFDC7C0084
:1014C0003E7C003E7C003E7C003E7C003E7C003E3C
:1014D0007C003E7C003E7C003E7C003E3BFFDC17F7
:1014E000FFE80FFFF007FFE007FFE00FFFF017FF37
:1014F000E83BFFDC7C003E7C003E7C003E7C003E06
:101500007C003E7C003E7C003E7C003E7C003E7CBD
:10151000003E38001C17FFE80FFFF007FFE803FF4D
:10152000DC00003E00003E00003E00003E00003EA9
:1015300000003E00003E00003E00003E00003E0372
:10154000FFDC07FFE80FFFF007FFE01FF82FF47044
:101550000E700E700E700E700E700E700E20040065
:10156000002004700E700E700E700E700E700E70F3
:101570000E2FF41FF800000004000E000E000E00F5
:101580000E000E000E000E000400000004000E000D
:101590000E000E000E000E000E000E000400001FD4
:1015A000F80FF4000E000E000E000E000E000E00EC
:1015B0000E00041FF82FF0700070007000700070B3
:1015C00000700070002FF01FF81FF80FF4000E00DD
:1015D0000E000E000E000E000E000E00041FF80F8D
:1015E000F4000E000E000E000E000E000E000E0F96
:1015F000F41FF800002004700E700E700E700E7054
:101600000E700E700E20041FF80FF4000E000E0076
:101610000E000E000E000E000E000400001FF82F3A
:10162000F07000700070007000700070007000209A
:10163000001FF80FF4000E000E000E000E000E004A
:101640000E000E0FF41FF81FF82FF07000700070DE
:1016500000700070007000700020001FF82FF47000
:101660000E700E700E700E700E700E700E2FF41F36
:10167000F81FF80FF4000E000E000E000E000E0012
:101680000E000E000400000004000E000E000E000C
:101690000E000E000E000E000400001FF82FF47064
:1016A0000E700E700E700E700E700E700E20041FF5
:1016B000F82FF4700E700E700E700E700E700E70AB
:1016C0000E2FF41FF81FF82FF4700E700E700E70AE
:1016D0000E700E700E700E20041FF80FF4000E0036
:1016E0000E000E000E000E000E000E0FF41FF80F7D
:1016F000FC1FF8380038003800380038003FF83F49
:10170000F0380038003800380038001FF80FFC0FA0
:10171000FC1FF8380038003800380038001FF00F80
:10172000F8001C001C001C001C001C1FF83FF008E7
:101730001C3E7F7F3E1C08000180000007E0000087
:101740001E780000781E0001E00780078001E01E7F
:101750000000787800001EE0000007FFFFFFFFFF99
:10176000FFFFFFFFFFFFFFFFFFFFFFE00000077825
:1017700000001E1E000078078001E001E0078000E5
:10178000781E00001E78000007E0000001800000C5
:10179000000000000010000838001C7C003E7E00A5
:1017A0003E7F003E7F803E7F803E7DC03E7DE03EAE
:1017B0007CE03E7CF03E7C703E38781C10180800BF
:1017C0000000101808381E1C7C0E3E7C0F3E7C0763
:1017D0003E7C07BE7C03BE7C03FE7C01FE7C00FEDB
:1017E0007C007E7C003E38001C10000800000000D9
:1017F00000000FF01FF8381C381C381C381C381C2F
:101800003FF83FF03F003B8039C038E0387018386F
:10181000081800007FC07FC060F060F860DC60DE08
:1018200060CF60CC7FCC7FE67FF67FF67FF67FF6D9
:101830007FF67FDE7FDCFFE0FFE0FFE0FFFFFFFFE2
:10184000FFFFFFFFFFFFFFFFFFFFFFFFFFFFFFFFA8
:101850003FFFFFFFFFFFFFF87FFFFFFFFFFFFFFCE2
:10186000E00000000000000EC000000000000006C4
:10187000C000000000000006C000000000000006DC
:10188000C000000000000006C0000FF03018000685
:10189000C0001FF830300006C00018183060000685
:1018A000C000181830C00006C000181831800006AB
:1018B000C000181833000006C000181836000006D3
:1018C000C00018183C000006C00018183C000006B4
:1018D000C000181836000006C000181833000006B3
:1018E000C000181831800006C000181830C000066B
:1018F000C000181830600006C0001FF83030000625
:10190000C0000FF030180006C00000000000000604
:10191000C000000000000006C0000000000000063B
:10192000C000000000000006E00000000000000E03
:101930007FFFFFFFFFFFFFFC3FFFFFFFFFFFFFF801
:1019400007FFFFFFFFFFFFFFFFFFFFFFFFFFFFC0DE
:101950000FFFFFFFBFFFFFFEFFFFFFFBFFFFFFE0EB
:101960001C000000A00000028000000A00000070BF
:1019700018000000A00000028000000A00000030F3
:1019800018000000A00000028000000A00000030E3
:1019900018000000A00000028000600A00C00030B3
:1019A00018000000A00000028000E00A00E0003003
:1019B00018000000A00000028001E00A00F00030E2
:1019C00018003000A00000028003600A00D8003038
:1019D00018007800A00000028006600A00CC0030E9
:1019E0001800CC00A3FFFFC2800C600A00C60030C4
:1019F00018018600A3FFFFC28018600A00C30030F0
:101A000018030300A18001828030600A00C1803089
:101A100018060180A0C003028060600A00C0C030C8
:101A2000180C00C0A060060280C0600A00C06030D0
:101A300018180060A0300C0280C0600A00C060303E
:101A400018300030A01818028060600A00C0C03052
:101A5000187FFFF8A00C30028030600A00C180308F
:101A6000187FFFF8A00660028018600A00C30030EB
:101A700018000000A003C002800C600A00C60030FD
:101A800018000000A00180028006600A00CC00302F
:101A900018000000A00000028003600A00D8003097
:101AA00018000000A00000028001E00A00F00030F1
:101AB00018000000A00000028000E00A00E00030F2
:101AC00018000000A00000028000600A00C0003082
:101AD00018000000A00000028000000A0000003092
:101AE00018000000A00000028000000A0000003082
:101AF0001C000000A00000028000000A000000702E
:101B00000FFFFFFFBFFFFFFEFFFFFFFBFFFFFFE039
:101B100007FFFFFFFFFFFFFFFFFFFFFFFFFFFFC00C
:101B200000000000000000000000000000000000B5
:101B300000000000000000000000000000000000A5
:101B40000000000000000000000000000000000095
:101B50000000000000000000000000000000000085
:101B60000000000000000000000000000000000075
:101B70000000000000000000000000000000000065
:101B80000000000000000000000000000000000055
:101B90000000000000000000000000000000000045
:101BA0000000000000000000000000000000000035
:101BB000000000000000007F3E0000000000000068
:101BC00000001F802F4030C030C030C030C02F40D8
:101BD0001F80000000001FF02FE0300030003000B8
:101BE00030003000300030002FE01FF00000000017
:101BF00000000000000000000000000000000000E5
:101C000000000000000000000000000000000000D4
:101C100000000000000000000000000000000000C4
:101C200000000000000000000000000000000000B4
:101C300000000000000000000000000000000000A4
:101C40000000000000000000000000000000000094
:101C50000000000000000000000000000000000084
:101C60000000000000000000000000000000000074
:101C70000000000000000000000000000000000064
:101C80000000000000000000000000000000000054
:101C90000000000000000000000000000000000044
:101CA0000000000000000000000000000000000034
:101CB0000000000000000000000000000000000024
:101CC0000000000000000000000000000000000014
:101CD0000000000000000000000000000000000004
:101CE00000000000000000000000000000000000F4
:101CF00000000000000000000000000000000000E4
:101D000000000000000000000000020001007F024F
:101D10004A02020002004902140203000100BE034D
:101D20006F03030002006E03D30203000300D2021C
:101D300051020300040050021B0204000100FE04D3
:101D40009404040002009304C40304000300C303CA
:101D500017030400040016038C02040005008B0224
:101D60004902050001003D06B80505000200B7055F
:101D7000B50405000300B404DD0305000400DC0322
:101D80003003050005002F039F02050006009E0298
:101D90006202060001007D07DD0606000200DC0687
:101DA000A60506000300A505A20406000400A10480
:101DB000D20306000500D103250306000600240314
:101DC0009702060007009602520207000100BC08B5
:101DD00002080700020001089706070003009606A4
:101DE0006805070004006705750407000500740412
:101DF000AB0307000600AA0306030700070005035C
:101E00007C02070008007B021F02070009001E0277
:101E1000FC01080002005208880708000300870739
:101E20002E06080004002D061905080005001805F7
:101E3000310408000600300474030800070073032F
:101E4000D60208000800D5026D02080009006C02E5
:101E50004502090002005C097908090003007808BE
:101E6000F40609000400F306BB0509000500BA05E5
:101E7000B70409000600B604E20309000700E10305
:101E80003103090008003003BA0209000900B90251
:101E9000570209000A00560220020A0003006D08DA
:101EA000B9070A000400B8075E060A0005005D06CF
:101EB0003D050A0006003C0551040A0007005004D5
:101EC0008C030A0008008B0308030A0009000703BB
:101ED00099020A000A0098025C020B0003004509FF
:101EE0007F080B0004007E0802070B0005000107B5
:101EF000C4050B000600C305C0040B000700BF04A7
:101F0000E7030B000800E60356030B000900550326
:101F1000DC020B000A00DB025A020B000B00590224
:101F20001B020C0004006D08A5070C000500A407A7
:101F30004A060C00060049062E050C0007002D0578
:101F400042040C0008004104A3030C000900A20392
:101F50001E030C000A001D0391020C000B009002EE
:101F60004C020D000400200947080D00050046083A
:101F7000D0060D000600CF069D050D0007009C054C
:101F80009D040D0008009C04F1030D000900F003FE
:101F900061030D000A006003C7020D000B00C602BA
:101FA00049020D000C00480214020E000500010851
:101FB00056070E00060055070B060E0007000A061E
:101FC000F8040E000800F7043E040E0009003D046A
:101FD000A3030E000A00A203FE020E000B00FD0286
:101FE00075020E000C0074023D020F0005009308FC
:101FF000DC070F000600DB077A060F0007007906F2
:1020000052050F00080051058C040F0009008B04D5
:10201000E6030F000A00E50334030F000B0033034F
:10202000A2020F000C00A1026502100005002509A4
:102030006208100006006108E80610000700E706C5
:10204000AD0510000800AC05DA0410000900D90441
:10205000280410000A0027046B0310000B006A0319
:10206000CF0210000C00CE02510210000D005002F1
:10207000130211000500B809E90811000600E8087C
:102080005707110007005607080611000800070649
:1020900027051100090026056B0411000A006A04D7
:1020A000A20311000B00A103FC0211000C00FB02B3
:1020B000760211000D00750234021200060093082A
:1020C000C50712000700C407630612000800620675
:1020D0007505120009007405AD0412000A00AC0475
:1020E000D80312000B00D703290312000C002803A9
:1020F0009B0212000D009A02250212000E0024021B
:10210000F401130006000D0934081300070033081A
:10211000BD0613000800BC06C20513000900C10576
:10212000F00413000A00EF040F0413000B000E0468
:10213000560313000C005503C00213000D00BF022C
:10214000440213000E004302100214000600870927
:10215000A20814000700A1081807140008001707B8
:102160001006140009000F06320514000A0031059C
:10217000460414000B004504830314000C00820382
:10218000E50214000D00E402620214000E00610278
:102190002B021500070020087307150008007207BE
:1021A0005D06150009005C06750515000A0074053A
:1021B0007D0415000B007C04B00315000C00AF0378
:1021C0000A0315000D000903800215000E007F02AE
:1021D0004702160007008308CE0716000800CD0747
:1021E000AB0616000900AA06B70516000A00B605D8
:1021F000B30416000B00B204DD0316000C00DC0370
:102200002F0316000D002E039F0216000E009E02E3
:10221000630217000700E6082808170008002708CF
:10222000F80617000900F706FA0517000A00F90575
:10223000EA0417000B00E9040A0417000C00090463
:10224000550317000D005403BE0217000E00BD0217
:10225000430217000F004202060218000700490956
:10226000830818000800820846071800090045077F
:102270003C0618000A003B06210518000B0020054B
:10228000360418000C003504790318000D0078039B
:10229000DC0218000E00DB025B0218000F005A027D
:1022A0001C0219000700AC09DE0819000800DD084F
:1022B00094071900090093077F0619000A007E069B
:1022C000570519000B005605630419000C00620441
:1022D0009E0319000D009D03FA0219000E00F90279
:1022E000750219000F00740233021A000800620818
:1022F000E1071A000900E007C2061A000A00C10639
:102300008E051A000B008D0590041A000C008F0436
:10231000C3031A000D00C20319031A000E001803AC
:102320008E021A000F008D0249021B000800B5083A
:102330002F081B0009002E0804071B000A000307D2
:10234000C5051B000B00C405BD041B000C00BC042C
:10235000E9031B000D00E80338031B000E003703E0
:10236000A7021B000F00A6022E021B0010002D0268
:10237000FB011C00080007097C081C0009007B0801
:1023800046071C000A004507FB051C000B00FA0568
:10239000EA041C000C00E9040E041C000D000D04EE
:1023A00056031C000E005503C0021C000F00BF02A4
:1023B00042021C00100041020D021D0008005A09D3
:1023C000CA081D000900C90889071D000A008807FE
:1023D00032061D000B00310617051D000C00160506
:1023E00033041D000D00320474031D000E0073033E
:1023F000D9021D000F00D80257021D00100056021E
:1024000020021E000800AC0917091E000900160969
:10241000CB071E000A00CA0769061E000B006806EB
:1024200044051E000C00430558041E000D0057040F
:1024300093031E000E009203F2021E000F00F10231
:102440006B021E0010006A0233021F000900CB0855
:102450000E081F000A000D08A0061F000B009F06B3
:1024600071051F000C0070057D041F000D007C0429
:10247000B1031F000E00B0030C031F000F000B037D
:1024800080021F0010007F0246022000090013098D
:10249000500820000A004F08D60620000B00D50681
:1024A0009E0520000C009D05A20420000D00A10443
:1024B000D00320000E00CF03240320000F002303CD
:1024C00094022000100093025802210009005C09C8
:1024D000930821000A0092080D0721000B000C0749
:1024E000CB0521000C00CA05C70421000D00C6045D
:1024F000EE0321000E00ED033E0321000F003D031B
:10250000A90221001000A8026B0222000900A40900
:10251000D50822000A00D408440722000B00430714
:10252000F80522000C00F705EC0422000D00EB0476
:102530000D0422000E000C04570322000F00560366
:10254000BE0222001000BD027E0223000A004208E3
:102550007A0723000B007907250623000C002406C8
:10256000110523000D0010052B0423000E002A0482
:10257000700323000F006F03D30223001000D20268
:10258000910224000A007F08B10724000B00B00765
:10259000520624000C005106360524000D003505B6
:1025A0004A0424000E004904890324000F00880314
:1025B000E70224001000E602A30225000A00BB087F
:1025C000E80725000B00E7077F0625000C007E06C4
:1025D0005B0525000D005A05680425000E00670400
:1025E000A20325000F00A103FC0225001000FB023E
:1025F000B60226000A00F7081E0826000B001D0878
:10260000AC0626000C00AB06800526000D007F05F9
:10261000870426000E008604BB0326000F00BA03C1
:102620001003260010000F03C90227000A00340916
:10263000550827000B005408D90627000C00D806BF
:10264000A50527000D00A405A50427000E00A4047D
:10265000D50327000F00D40325032700100024030F
:10266000DC0228000A0070098B0828000B008A0889
:10267000050728000C000407CA0528000D00C9053D
:10268000C40428000E00C304EE0328000F00ED036D
:102690003903280010003803EE0229000A00AD09B2
:1026A000C20829000B00C108320729000C003107BD
:1026B000EF0529000D00EE05E20429000E00E104FB
:1026C000070429000F0006044E03290010004D03E3
:1026D00001032A000B0008085F072A000C005E07B0
:1026E00015062A000D00140601052A000E0000053B
:1026F00020042A000F001F0463032A001000620355
:1027000014032B000B0039088C072B000C008B07DF
:102710003A062B000D0039061F052B000E001E0582
:1027200039042B000F00380478032B0010007703C6
:1027300027032C000B006A08B9072C000C00B8070F
:102740005E062C000D005D063E052C000E003D05CA
:1027500053042C000F0052048C032C0010008B0338
:1027600039032D000B009B08E6072D000C00E50740
:1027700083062D000D0082065C052D000E005B0512
:102780006B042D000F006A04A1032D001000A003AC
:102790004C032E000B00CC0813082E000C0012086E
:1027A000A8062E000D00A7067A052E000E0079055A
:1027B00085042E000F008404B6032E001000B5031C
:1027C0005F032F000B00FD0840082F000C003F089E
:1027D000CE062F000D00CD0699052F000E0098059E
:1027E0009E042F000F009D04CA032F001000C90390
:1027F000720330000B002E096D0830000C006C08CD
:10280000F30630000D00F206B80530000E00B705E3
:10281000B70430000F00B604DF0330001000DE0301
:10282000840331000B005F099A0831000C009908FD
:10283000180731000D001707D60531000E00D50529
:10284000D00431000F00CF04F30331001000F20375
:10285000970332000B009009C70832000C00C6082D
:102860003D0732000D003C07F40532000E00F30571
:10287000E90432000F00E8040804320010000704E5
:10288000AA0333000B00C109F40833000C00F3085D
:10289000620733000D006107130633000E001206B5
:1028A000020533000F0001051D04330010001C0455
:1028B000BD0334000C004F08870734000D00860765
:1028C000320634000E0031061C0534000F001B05D3
:1028D0003104340010003004CF0335000C007708B9
:1028E000AC0735000D00AB07500635000E004F0653
:1028F000340535000F00330546043500100045044B
:10290000E20336000C00A008D10736000D00D00706
:102910006E0636000E006D064E0536000F004D05A2
:102920005B04360010005A04F50337000C00C90898
:10293000F60737000D00F5078D0637000E008C06F0
:10294000670537000F0066056F04370010006E043E
:10295000080438000C00F2081B0838000D001A08A3
:10296000AB0638000E00AA06800538000F007F0570
:1029700084043800100083041B0439000C001B0978
:10298000400839000D003F08CA0639000E00C9068C
:10299000990539000F009805980439001000970434
:1029A0002D043A000C00440965083A000D00640843
:1029B000E8063A000E00E706B2053A000F00B1053E
:1029C000AD043A001000AC0440043B000C006D095B
:1029D0008A083B000D00890807073B000E00060728
:1029E000CB053B000F00CA05C2043B001000C10428
:1029F00053043C000C009609AF083C000D00AE08E3
:102A000025073C000E002407E5053C000F00E40507
:102A1000D7043C001000D60466043D000C00BF093A
:102A2000D4083D000D00D30844073D000E004307C5
:102A3000FE053D000F00FD05EB043D001000EA041B
:102A400078043E000D000B0862073E000E0061078F
:102A500017063E000F00160600053E001000FF049A
:102A60008B043F000D002C0881073F000E008007FB
:102A700030063F000F002F0614053F00100013051D
:102A80009E0440000D004D089F0740000E009E0769
:102A9000490640000F00480629054000100028059F
:102AA000B10441000D006E08BE0741000E00BD07D5
:102AB000620641000F0061063D05410010003C0523
:102AC000C30442000D008F08DC0742000E00DB0744
:102AD0007B0642000F007A065205420010005105A5
:102AE000D60443000D00B108FB0743000E00FA07AF
:102AF000940643000F009306670543001000660527
:102B0000E90444000D00D208190844000E0018081A
:102B1000AE0644000F00AD067C05440010007B05A6
:102B2000FC0445000D00F308380845000E00370886
:102B3000C70645000F00C6069005450010008F052A
:102B40000E0546000D001409560846000E005508F3
:102B5000E00646000F00DF06A50546001000A405AC
:102B6000210547000D003609750847000E0074085E
:102B7000F90647000F00F806B90547001000B80530
:102B8000340548000D005709930848000E009208CC
:102B9000120748000F001107CE0548001000CD05B0
:102BA000470549000D007809B20849000E00B10838
:102BB0002B0749000F002A07E20549001000E10534
:102BC00059054A000D009909D0084A000E00CF08A7
:102BD00045074A000F004407F7054A001000F605B4
:102BE0006C054B000D00BA09EE084B000E00ED0815
:102BF0005D074B000F005C070C064B0010000B0636
:102C00007F054C000E003E0877074C000F0076074A
:102C100021064C001000200692054D000E005A08B7
:102C200090074D000F008F0735064D001000340649
:102C3000A4054E000E007608A9074E000F00A80755
:102C40004A064E0010004906B7054F000E009108D5
:102C5000C2074F000F00C1075E064F0010005D065F
:102C6000CA0550000E00AD08DB0750000F00DA0760
:102C70007306500010007206DD0551000E00C908F1
:102C8000F40751000F00F307880651001000870673
:102C9000F00552000E00E5080E0852000F000D0866
:102CA0009C06520010009B06020653000E0000090D
:102CB000260853000F002508B10653001000B00687
:102CC000150654000E001C09400854000F003F0870
:102CD000C60654001000C506280655000E00380927
:102CE000590855000F005808DA0655001000D9069B
:102CF0003B0656000E005409720856000F0071087A
:102D0000EF0656001000EE064D0657000E006F0944
:102D10008B0857000F008A080307570010000207AE
:102D2000600658000E008B09A40858000F00A30885
:102D30001807580010001707730659000E00A7095E
:102D4000BE0859000F00BD082D07590010002C07C0
:102D500086065A000E00C409D7085A000F00D6088C
:102D600041075A00100040079806000002000600C4
:102D70000B00110018002100290032003A00430026
:102D80004B0054005C0064006D0076007F008800FA
:102D900091009900A100AA00B300BC00C400CD00BE
:102DA000D600DF00E800F000F800000108010F0184
:102DB00016011D0124012B01320139013F0145019A
:102DC0004B01510157015D01630169016F017501FB
:102DD0007A017F01840189018E01930198019D018F
:102DE000A201A701AB01AF01B301B701BB01BF0154
:102DF000C301C701CB01CF01D301D701DB01DF0143
:102E0000E201E501E801EB01EE01F101F401F70156
:102E1000FA01FD0100020302060209020C0202008F
:102E20000100D602F4010300010067031F03030041
:102E300002001E03D602040001008A0429040400D3
:102E400002002804C80305000100AC053305050095
:102E500002003205BA0406000100CE063D06060057
:102E600002003C06AC0507000100F1074807070017
:102E7000020047079E0608000100130952080800D7
:102E800002005108900709000200BF0882080A00EA
:102E90000200C409FC08000001000300050007004F
:102EA00009000B000D000E000F0011241FBECFEF14
:102EB000D0E1DEBFCDBF11E0A0E0B1E0E2EDF4E68D
:102EC00000E00BBF02C007900D92A631B107D9F701
:102ED00010E1A6E1B1E001C01D92A23AB107E1F70D
:102EE0000E9476170C9467320C9400001F936B9A23
:102EF000739A11E015BF80E090E00E949E3088E058
:102F00008093B6001092B20085E08093B0001093D9
:102F100070008FE386BD82E084BD10936E00389808
:102F200039983A983B98409A419A429A439A7894B1
:102F300086E991E00E94AA300E94653081E090E02D
:102F40001F9108950E94B21D0E9418210E946C27B3
:102F50000E94C2270E942C2A0E94382A0E94792CA3
:102F600081E891E00E94AA3088E891E00E94AA30AE
:102F70008FE891E00E94AA304BE06AE080E00E9476
:102F8000EC1F60E375E787E491E00E9403318091D4
:102F90008B10813089F780917F10882369F78091A9
:102FA0008610882341F58091891090918A10843988
:102FB000910538F54FE069E185E00E94EC1F20E0C3
:102FC00049EC50E062E080E00E940F2380918C1079
:102FD00087FD1DC041E169E180E00E94EC1F209166
:102FE0008C1002E030E041E069E181E00E94672658
:102FF0000E94382AC1CF8091891090918A100F9732
:10300000C8F240E160E180E00E94EC1FD3CF4EE0C7
:1030100069E180E00E94EC1FE2CF0E94BC2B0E947D
:103020009C2C15E0C2E3D0E083E0F82E0FC0809125
:103030001601909117010196909317018093160144
:1030400068EE73E088EA91E00E94033180917F107E
:10305000882369F720E046E051E068E081E10E94C2
:103060000F2320E04CEB50E069E081E10E940F2348
:1030700020E040EC50E066E080E00E940F2320E07A
:1030800046E051E063E182E10E940F2381E00E946B
:10309000B72C90931C0180931B0180918D1065E0EB
:1030A0000E941032819FC001112402E09C0140E087
:1030B0006EE28BE00E94672680911B0190911C01BB
:1030C0000E946C2B809194109091951062E370E0B7
:1030D0000E941C326C9F90016D9F300D7C9F300DC3
:1030E000112404E041E06AE381E00E9467268091B8
:1030F0009010813009F4F5C020E04FEE50E060E11F
:1031000089E00E940F2380918E1090918F1068EEBD
:1031100073E00E941C329B0104E041E06AE88AE00F
:103120000E94672680919110823009F4FBC043E031
:103130006DE182E10E94EC1F80919210813009F4D0
:10314000FBC041E06CE08BE00E94EC1F0E946E2A05
:1031500020919310222309F405C120FDADC02695CE
:1031600001E030E040E06CE088E00E94672644E047
:103170006FE18BE00E94EC1F43E165E28BE00E946F
:10318000EC1F30998DC010929210329B90C03399F1
:1031900077C0469A8091160190911701805B944008
:1031A00009F477C020919310222319F18091921095
:1031B0008823F9F480919110823009F4FEC0809147
:1031C00094109091951035E08C3D930708F4E8C079
:1031D000815D974008F4FDC0203108F0FAC046E058
:1031E00061E18DE00E94EC1F42E16EE18DE00E9402
:1031F000EC1F2091791030917A10C9018D5A9040BE
:10320000815B914008F5809177109091781042E0B1
:10321000833F9407C8F08D559340B0F4809191108E
:10322000823009F4DBC082E08093911041E06DE1CF
:1032300082E10E94EC1F42E06CE082E10E94EC1F00
:103240002091791030917A102E5B30402956314010
:1032500008F0EDCE809177109091781021E08237C0
:10326000920708F4E4CE875D914008F0E0CE8091AB
:103270009010882309F0AFC081E080939010D7CEE2
:1032800046988091160190911701805B944009F057
:1032900089CF0E94A32B109217011092160182CFA2
:1032A00031997AC081E080939210329970CF0E9458
:1032B000852B0E94A32B6BCF269530E02F5F3F4FCD
:1032C00001E040E06CE088E00E94672643E16FE1A6
:1032D0008BE00E94EC1F45E065E28BE00E94EC1F52
:1032E00050CF20E048EF50E060E189E00E940F23DA
:1032F00020E041E051E060E189E00E940F238091ED
:1033000096109091971068EE73E00E941C329B011A
:1033100041E06AE88AE00E9467268091911082303D
:1033200009F005CF42E06CE082E10E94EC1F809141
:103330009210813009F005CF49E06CE08BE00E94EB
:10334000EC1F42E161E18DE00E94EC1F42E16EE181
:103350008DE00E94EC1F0E946E2A20919310222380
:1033600009F0FBCE48E06CE088E00E94EC1F43E1EE
:1033700065E28BE00E94EC1F43E16FE18BE00E946D
:10338000EC1F42E161E18DE00E94EC1F42E16EE141
:103390008DE00E94EC1FF5CE82E080939210F5CE76
:1033A0002230B8F047E06EE18DE00E94EC1F42E170
:1033B00061E18DE00E94EC1F1CCF809194109091F0
:1033C000951033E0883E930758F38D5D954008F0E3
:1033D00003CF42E105CF1092901029CEF0929110C8
:1033E00041E06CE082E10E94EC1F43E06DE182E18C
:1033F0000E94EC1F2091791030917A1025CF809196
:103400007F10882351F068EE73E088EA91E00E9413
:10341000033180917F108823B1F70E9405288091A5
:10342000791090917A10805392408155914098F490
:10343000809177109091781021E08E3F920758F09C
:103440008356924040F490E080918610882309F4DE
:1034500091E09093861020E042ED50E06BE089E02F
:103460000E940F2320E04EED50E06EE08EE00E94BF
:103470000F2320E040EE50E06DE082E10E940F2338
:1034800020E043EE50E06EE081E10E940F2320E057
:1034900047EE50E060E180E00E940F2320E044EC22
:1034A00050E06BE080E00E940F2383E00E94B72C85
:1034B000909319018093180185E00E94B72C8093A6
:1034C0001A0160911A0180911801909119010E94CE
:1034D000BF29209184103091851002E041E062E61E
:1034E0008AE00E9467262091831001E030E041E0ED
:1034F00062E68FE00E946726209187103091881045
:1035000004E041E06AE881E00E9467260E943629D3
:103510000E945529809186108823C1F020E04EEC4E
:1035200050E06EE088E00E940F23209189103091D6
:103530008A102F303105C0F081E080938B1004E0B9
:1035400041E062E680E00E9467265DCF20E040ED2A
:1035500050E06EE088E00E940F23209189103091A6
:103560008A102439310540F710928B1040E160E158
:1035700080E00E94EC1F4AE061E183E00E94EC1FC2
:103580002091891030918A10DACFDF93CF93CDB795
:10359000DEB72A970FB6F894DEBF0FBECDBF0E94EC
:1035A0009F2810E0E0E0AE2EE1E0BE2E7E01089400
:1035B000E11CF11C71E0C72ED12C9924939402E0F8
:1035C00080917F10882309F4F5C00E94052880911E
:1035D0007F10813009F47CC180917E10A601481BC8
:1035E0005109440F551F440F551F509541955F4F8A
:1035F000475F5E4F20E065E080E00E940F238091EE
:103600007B10A601481B5109440F551F440F551F3D
:10361000509541955F4F4B5D5E4F20E065E084E043
:103620000E940F238091811090E09F938F9380914F
:10363000821090E09F938F9380917D1090E09F93F4
:103640008F938091801090E09F938F93BF92AF9261
:10365000FF92EF920E94772D20E0A70165E088E0BD
:103660000E94412120E04CE551E066E080E00E94AC
:103670000F238DB79EB70C960FB6F8949EBF0FBE62
:103680008DBF123009F43CC1133008F006C111237C
:1036900009F013C120E048E551E066E080E00E94B7
:1036A0000F232091791030917A10C9018B599240E3
:1036B00086389105D8F4809177109091781042E087
:1036C0008C31940798F08C57924080F4123009F4B2
:1036D0009CC1133008F036C1112309F054C1809108
:1036E0007E10873018F48F5F80937E10C901875158
:1036F000924085389105D8F4809177109091781098
:1037000042E08C31940798F08C57924080F412304C
:1037100009F457C1133008F026C1112309F03FC145
:1037200080917E10823018F0815080937E10C90104
:10373000835991408538910568F480917710909174
:10374000781042E08C31940728F08C57924010F4A6
:1037500011111150C9018E5091408638910570F4B5
:10376000809177109091781042E08C31940730F07E
:103770008C57924018F4153008F41F5F20593140DF
:103780002F50314060F4809177109091781021E0B3
:103790008039920720F0855F914008F4C9C068EE37
:1037A00073E081E491E00E94033180917F108823CF
:1037B00009F00BCF0E94B32864E975E281E491E03F
:1037C0000E9403310E94E42880917E10A601481BCC
:1037D0005109440F551F440F551F509541955F4F98
:1037E000475F5E4F20E060E080E00E940F23809101
:1037F0007B10A601481B5109440F551F440F551F4C
:10380000509541955F4F4B5D5E4F20E060E084E056
:103810000E940F238091811090E09F938F9380915D
:10382000821090E09F938F9380917D1090E09F9302
:103830008F938091801090E09F938F93BF92AF926F
:10384000FF92EF920E94772D20E0A70160E088E0D0
:103850000E9441218091791090917A108E5B904066
:103860002DB73EB7245F3F4F0FB6F8943EBF0FBE53
:103870002DBF895A924008F0A3CE80917710909185
:10388000781043E08E36940708F49ACE8A58934015
:1038900008F096CE90927F1093CE143009F440C079
:1038A0001430B0F1153009F0FCCE20E045E551E0D0
:1038B00066E081E10E940F23F4CE113009F0F1CED1
:1038C00020E048E551E066E084E00E940F23E9CE65
:1038D00000937F100E94B7280E94F3204DE060E51E
:1038E00082E00E94EC1F4CE068E786E00E94EC1F3B
:1038F00020E041E751E063E082E00E940F236CCEBC
:1039000020E045E551E066E088E00E940F23C9CE43
:1039100020E045E551E066E08BE00E940F23C1CE38
:1039200020E045E551E066E08EE00E940F23B9CE2D
:1039300010927C100E94B32810927F100E94F320F6
:1039400010E02DCF143009F457C01430A0F1153019
:1039500009F0CCCE809181108B3308F0C7CE8F5FF9
:1039600080938110C3CE1430F1F1143098F11530EA
:1039700009F0DDCE80918110882309F4D8CE8150E2
:1039800080938110D4CE113009F0B0CE80917B109D
:103990008C3008F0ABCE8F5F80937B10A7CE1130B8
:1039A00009F0C5CE80917B10823008F4C0CE8150E2
:1039B00080937B10BCCE80917D108F5F80937D10B3
:1039C00095CE80918010823008F4B1CE81508093E2
:1039D0008010ADCE80917D10882309F4A8CE81504F
:1039E00080937D10A4CE80918210882309F49FCE0D
:1039F0008150809382109BCE80918210873108F095
:103A000075CE8F5F8093821071CE60917D10809112
:103A10007B100E94BA2890918010981718F49F5F2D
:103A2000909380102091791030917A105FCE0E948F
:103A300019301092B2000E9465300E9419308FE355
:103A400086BD0E947F1D0E94E22C0E9430310E94A0
:103A500065300E9419308091B90090E0887F9070A5
:103A600088359105E1F08935910534F48830910568
:103A700089F08034910511F00E9465308091BC007E
:103A80008F7D8093BC008091BC0080688093BC00D7
:103A90000E94653081E90E94522A0E94653080911F
:103AA000BB0080938C100E94432A0E9465301F92B5
:103AB0000F920FB60F920BB60F9211242F933F93D4
:103AC0004F935F936F937F938F939F93AF93BF9326
:103AD000EF93FF930E945D2CFF91EF91BF91AF9107
:103AE0009F918F917F916F915F914F913F912F9116
:103AF0000F900BBE0F900FBE0F901F9018958091E6
:103B00001D01882371F140911E0150911F01FA019E
:103B1000E950FC4F30E021912F9A82B1922F92957B
:103B20009F70807F982B92B92F982F9A82B12F7017
:103B3000807F282B22B92F983F5F343161F7159A87
:103B4000000015981498CA01449690931F01809321
:103B50001E0180589C4028F010921F0110921E01F7
:103B6000149A089510921D012F9A279A8FEF81B908
:103B700012B846983E9A0895853108F08DC1653196
:103B800008F08AC1403208F487C1403A08F084C185
:103B9000405250E0440F551F440F551F440F551F0E
:103BA000660F660F660F70E0A82FB0E0213009F4B1
:103BB000B6C0FA01E356FE4F2491FB01EE0FFF1F42
:103BC000EE0FFF1FCF01880F991F880F991FE80F75
:103BD000F91FEA0FFB1FE950FC4F2083FA01E25660
:103BE000FE4F24916F5F7F4FFB01EE0FFF1FEE0F23
:103BF000FF1FCF01880F991F880F991FE80FF91F2A
:103C0000EA0FFB1FE950FC4F2083FA01E156FE4FFB
:103C100024916F5F7F4FFB01EE0FFF1FEE0FFF1F21
:103C2000CF01880F991F880F991FE80FF91FEA0F1E
:103C3000FB1FE950FC4F2083FA01E056FE4F249110
:103C40006F5F7F4FFB01EE0FFF1FEE0FFF1FCF01D6
:103C5000880F991F880F991FE80FF91FEA0FFB1FA4
:103C6000E950FC4F2083FA01EF55FE4F24916F5F1E
:103C70007F4FFB01EE0FFF1FEE0FFF1FCF01880FDD
:103C8000991F880F991FE80FF91FEA0FFB1FE950D2
:103C9000FC4F2083FA01EE55FE4F24916F5F7F4F5A
:103CA000FB01EE0FFF1FEE0FFF1FCF01880F991FC3
:103CB000880F991FE80FF91FEA0FFB1FE950FC4F0F
:103CC0002083FA01ED55FE4F24916F5F7F4FFB017A
:103CD000EE0FFF1FEE0FFF1FCF01880F991F880FF8
:103CE000991FE80FF91FEA0FFB1FE950FC4F2083D3
:103CF0004C555E4FFA012491FB013196EE0FFF1FE8
:103D0000EE0FFF1FCF01880F991F880F991FE80F33
:103D1000F91FEA0FFB1FE950FC4F20830895FA01B9
:103D2000E356FE4F2491FB01EE0FFF1FEE0FFF1F26
:103D3000CF01880F991F880F991FE80FF91FEA0F0D
:103D4000FB1FE950FC4F20952083FA01E256FE4FFD
:103D500024916F5F7F4FFB01EE0FFF1FEE0FFF1FE0
:103D6000CF01880F991F880F991FE80FF91FEA0FDD
:103D7000FB1FE950FC4F20952083FA01E156FE4FCE
:103D800024916F5F7F4FFB01EE0FFF1FEE0FFF1FB0
:103D9000CF01880F991F880F991FE80FF91FEA0FAD
:103DA000FB1FE950FC4F20952083FA01E056FE4F9F
:103DB00024916F5F7F4FFB01EE0FFF1FEE0FFF1F80
:103DC000CF01880F991F880F991FE80FF91FEA0F7D
:103DD000FB1FE950FC4F20952083FA01EF55FE4F61
:103DE00024916F5F7F4FFB01EE0FFF1FEE0FFF1F50
:103DF000CF01880F991F880F991FE80FF91FEA0F4D
:103E0000FB1FE950FC4F20952083FA01EE55FE4F31
:103E100024916F5F7F4FFB01EE0FFF1FEE0FFF1F1F
:103E2000CF01880F991F880F991FE80FF91FEA0F1C
:103E3000FB1FE950FC4F20952083FA01ED55FE4F02
:103E400024916F5F7F4FFB01EE0FFF1FEE0FFF1FEF
:103E5000CF01880F991F880F991FE80FF91FEA0FEC
:103E6000FB1FE950FC4F209520834C555E4FFA0113
:103E70002491FB013196EE0FFF1FEE0FFF1FCF01C4
:103E8000880F991F880F991FE80FF91FEA0FFB1F72
:103E9000E950FC4F20952083089580E090E0FC01DC
:103EA000E351FB4FE491DC01A950BC4FEC93019628
:103EB0002CE08038920799F70895CF92DF92EF9225
:103EC000FF920F931F93CF93DF9394E1699FE001DB
:103ED0001124C80FD11D642F70E0660F771F660F85
:103EE000771FFDE9EF2EF4E0FF2EE60EF71E30E01F
:103EF00083E690E0289F8001299F100D389F100DC8
:103F00001124C901880F991F820F931FFC01EE0F26
:103F1000FF1FEE0FFF1FEE0FFF1FE81BF90BEE0F49
:103F2000FF1FDB01A156BB4F442379F503591E4EF9
:103F300020E030E0F7018491E82EFF24FD01449158
:103F4000C42EDD2405C06596CC19DD090F5F1F4F17
:103F50002E153F0588F4F8018491FE01E950FC4FCD
:103F600080832F5F3F4FC901642F70E00E941C3295
:103F7000892B49F32196EACFDF91CF911F910F91C1
:103F8000FF90EF90DF90CF9008958F01055B1A4E60
:103F900020E030E0F7018491E82EFF24FD014491F8
:103FA000C42EDD2403C021960F5F1F4F2E153F0541
:103FB00018F7F8018491FE01E950FC4F80832F5FD0
:103FC0003F4FC901642F70E00E941C32892B59F7C2
:103FD0006596CC19DD09E8CFAF92BF92CF92DF9200
:103FE000EF92FF920F931F93CF93DF9394E1699F1A
:103FF000E0011124C80FD11DE42FF0E0EE0FFF1FE8
:10400000EE0FFF1FCF0181569B4F20E030E0E356BB
:10401000FB4FE590F490042F10E0BAE4AB2EB0E033
:10402000BB2EA00EB11EFC014491C42EDD242E1522
:104030003F0508F50431110578F4F501EE0FFF1F77
:104040000590F491E02D0994F901EA5FF24EE491B4
:10405000DE01A950BC4FEC932F5F3F4FC901642F85
:1040600070E00E941C32892B89F46596CC19DD0919
:104070002E153F05F8F2DF91CF911F910F91FF9020
:10408000EF90DF90CF90BF90AF9008952196CFCF63
:10409000F901E652F34EE491DE01A950BC4FEC93D6
:1040A000DBCFF901EB53F34EE491DE01A950BC4F95
:1040B000EC93D2CFF901E451F44EE491DE01A95022
:1040C000BC4FEC93C9CFF901EE53F44EE491DE01FD
:1040D000A950BC4FEC93C0CFF901E355F44EE491E5
:1040E000DE01A950BC4FEC93B7CFF901E05CF64E6E
:1040F000E491DE01A950BC4FEC93AECFF901E05B37
:10410000F74EE491DE01A950BC4FEC93A5CFF90125
:10411000E45CF74EE491DE01A950BC4FEC939CCFD8
:10412000F901EE5EF74EE491DE01A950BC4FEC932D
:1041300093CFF901EE50F84EE491DE01A950BC4F47
:10414000EC938ACFF901E157F84EE491DE01A950D2
:10415000BC4FEC9381CFF901ED59F84EE491DE01AB
:10416000A950BC4FEC9378CFF901E95CF84EE4918B
:10417000DE01A950BC4FEC936FCFF901ED5CF84E16
:10418000E491DE01A950BC4FEC9366CFF901E15DEB
:10419000F84EE491DE01A950BC4FEC935DCFF901DC
:1041A000E15FF84EE491DE01A950BC4FEC9354CF8F
:1041B000F901E151F94EE491DE01A950BC4FEC93B5
:1041C0004BCFF901ED57F44EE491DE01A950BC4FFD
:1041D000EC9342CFF901E05EF44EE491DE01A95088
:1041E000BC4FEC9339CF80E89CE0E7EFF3E0DF01D0
:1041F0009C011D9221503040E1F708950F931F93C9
:1042000010921D0101EF13E06AE070E0C8010E9406
:10421000033116986AE070E0C8010E9403311798D4
:104220006AE070E0C8010E9403311F910F91089568
:104230000F931F9380E89CE0E7EFF3E0DF019C0120
:104240001D9221503040E1F701EF13E06AE070E089
:10425000C8010E940331179A6AE070E0C8010E9409
:104260000331169A6AE070E0C8010E94033110928F
:104270001F0110921E0181E080931D011F910F917B
:104280000895CF92DF92EF92FF920F931F93CF93F7
:10429000DF93982FF62EDA01E22E119657EFC52EF6
:1042A00053E0D52EC0E8DCE08E911196882389F08A
:1042B0008032D0F48D3009F4F2C08B3109F4E8C0BB
:1042C0008A3081F0192F1196912F8E9111968823A3
:1042D00079F7DF91CF911F910F91FF90EF90DF90D1
:1042E000CF900895F394EECF192F1F5F953158F7B3
:1042F00034E13F1540F3803A30F78052282F30E008
:10430000220F331F220F331F220F331F8F2D880FD1
:10431000880F880F482F50E0692F70E081E0E81681
:1043200009F4BFC0F901E356FE4F0491FA01EE0F04
:10433000FF1FEE0FFF1FCF01880F991F880F991FD6
:10434000E80FF91FE60FF71FE950FC4F0083F90152
:10435000E256FE4F04914F5F5F4FFA01EE0FFF1FD1
:10436000EE0FFF1FCF01880F991F880F991FE80FCD
:10437000F91FE60FF71FE950FC4F0083F901E156E2
:10438000FE4F04914F5F5F4FFA01EE0FFF1FEE0FDC
:10439000FF1FCF01880F991F880F991FE80FF91F82
:1043A000E60FF71FE950FC4F0083F901E056FE4F7E
:1043B00004914F5F5F4FFA01EE0FFF1FEE0FFF1FDB
:1043C000CF01880F991F880F991FE80FF91FE60F7B
:1043D000F71FE950FC4F0083F901EF55FE4F0491A0
:1043E0004F5F5F4FFA01EE0FFF1FEE0FFF1FCF0170
:1043F000880F991F880F991FE80FF91FE60FF71F05
:10440000E950FC4F0083F901EE55FE4F04914F5FD8
:104410005F4FFA01EE0FFF1FEE0FFF1FCF01880F56
:10442000991F880F991FE80FF91FE60FF71FE95032
:10443000FC4F0083F901ED55FE4F04914F5F5F4F34
:10444000FA01EE0FFF1FEE0FFF1FCF01880F991F1C
:10445000880F991FE80FF91FE60FF71FE950FC4F6F
:1044600000832C553E4FF9012491FA013196EE0F4D
:10447000FF1FEE0FFF1FCF01880F991F880F991F95
:10448000E80FF91FE60FF71FE950FC4F20831BCF01
:10449000F6019E01119221503040E1F713CF90E0D8
:1044A00011CFF901E356FE4F0491FA01EE0FFF1F01
:1044B000EE0FFF1FCF01880F991F880F991FE80F7C
:1044C000F91FE60FF71FE950FC4F00950083F90133
:1044D000E256FE4F04914F5F5F4FFA01EE0FFF1F50
:1044E000EE0FFF1FCF01880F991F880F991FE80F4C
:1044F000F91FE60FF71FE950FC4F00950083F90103
:10450000E156FE4F04914F5F5F4FFA01EE0FFF1F20
:10451000EE0FFF1FCF01880F991F880F991FE80F1B
:10452000F91FE60FF71FE950FC4F00950083F901D2
:10453000E056FE4F04914F5F5F4FFA01EE0FFF1FF1
:10454000EE0FFF1FCF01880F991F880F991FE80FEB
:10455000F91FE60FF71FE950FC4F00950083F901A2
:10456000EF55FE4F04914F5F5F4FFA01EE0FFF1FB3
:10457000EE0FFF1FCF01880F991F880F991FE80FBB
:10458000F91FE60FF71FE950FC4F00950083F90172
:10459000EE55FE4F04914F5F5F4FFA01EE0FFF1F84
:1045A000EE0FFF1FCF01880F991F880F991FE80F8B
:1045B000F91FE60FF71FE950FC4F00950083F90142
:1045C000ED55FE4F04914F5F5F4FFA01EE0FFF1F55
:1045D000EE0FFF1FCF01880F991F880F991FE80F5B
:1045E000F91FE60FF71FE950FC4F009500832C558B
:1045F0003E4FF9012491FA013196EE0FFF1FEE0FA5
:10460000FF1FCF01880F991F880F991FE80FF91F0F
:10461000E60FF71FE950FC4F2095208354CECF9230
:10462000DF92EF92FF920F931F93CF93DF93782F38
:10463000162F022F4F5F5F4F37EFC32E33E0D32E7D
:1046400020E8E22E2CE0F22E0BC08D3009F4E7C0FA
:104650008B3109F4DEC08A3009F41F5F4F5F5F4F72
:1046600041505040FA0184914F5F5F4F882309F415
:10467000D8C0803250F3753108F0C9C0153108F048
:10468000C6C0803A08F0C3C08052282F30E0220F05
:10469000331F220F331F220F331F812F880F880FE4
:1046A000880FA82FB0E0C72FD0E0013009F4C2C0B6
:1046B000F901E356FE4F6491FD01EE0FFF1FEE0F6F
:1046C000FF1FCF01880F991F880F991FE80FF91F4F
:1046D000EC0FFD1FE950FC4F6083F901E256FE4FDD
:1046E00064911196FD01EE0FFF1FEE0FFF1FCF012A
:1046F000880F991F880F991FE80FF91FEC0FFD1FF6
:10470000E950FC4F6083F901E156FE4F6491119628
:10471000FD01EE0FFF1FEE0FFF1FCF01880F991F46
:10472000880F991FE80FF91FEC0FFD1FE950FC4F90
:104730006083F901E056FE4F64911196FD01EE0F82
:10474000FF1FEE0FFF1FCF01880F991F880F991FC2
:10475000E80FF91FEC0FFD1FE950FC4F6083F901D2
:10476000EF55FE4F64911196FD01EE0FFF1FEE0F06
:10477000FF1FCF01880F991F880F991FE80FF91F9E
:10478000EC0FFD1FE950FC4F6083F901EE55FE4F21
:1047900064911196FD01EE0FFF1FEE0FFF1FCF0179
:1047A000880F991F880F991FE80FF91FEC0FFD1F45
:1047B000E950FC4F6083F901ED55FE4F649111966D
:1047C000FD01EE0FFF1FEE0FFF1FCF01880F991F96
:1047D000880F991FE80FF91FEC0FFD1FE950FC4FE0
:1047E00060832C553E4FF9012491FD013196EE0F67
:1047F000FF1FEE0FFF1FCF01880F991F880F991F12
:10480000E80FF91FEC0FFD1FE950FC4F20837F5F7D
:1048100025CFF601C70111920197E9F71FCF70E08C
:104820001DCFDF91CF911F910F91FF90EF90DF90FF
:10483000CF900895F901E356FE4F6491FD01EE0F0C
:10484000FF1FEE0FFF1FCF01880F991F880F991FC1
:10485000E80FF91FEC0FFD1FE950FC4F60956083D6
:10486000F901E256FE4F64911196FD01EE0FFF1F14
:10487000EE0FFF1FCF01880F991F880F991FE80FB8
:10488000F91FEC0FFD1FE950FC4F60956083F901A3
:10489000E156FE4F64911196FD01EE0FFF1FEE0FE2
:1048A000FF1FCF01880F991F880F991FE80FF91F6D
:1048B000EC0FFD1FE950FC4F60956083F901E05655
:1048C000FE4F64911196FD01EE0FFF1FEE0FFF1FCB
:1048D000CF01880F991F880F991FE80FF91FEC0F60
:1048E000FD1FE950FC4F60956083F901EF55FE4FC5
:1048F00064911196FD01EE0FFF1FEE0FFF1FCF0118
:10490000880F991F880F991FE80FF91FEC0FFD1FE3
:10491000E950FC4F60956083F901EE55FE4F6491BC
:104920001196FD01EE0FFF1FEE0FFF1FCF01880F45
:10493000991F880F991FE80FF91FEC0FFD1FE95011
:10494000FC4F60956083F901ED55FE4F649111961F
:10495000FD01EE0FFF1FEE0FFF1FCF01880F991F04
:10496000880F991FE80FF91FEC0FFD1FE950FC4F4E
:10497000609560832C553E4FF9012491FD013196DD
:10498000EE0FFF1FEE0FFF1FCF01880F991F880F3B
:10499000991FE80FF91FEC0FFD1FE950FC4F209500
:1049A00020837F5F5BCEFA019491853108F08EC140
:1049B000653108F08BC1903208F488C1903A08F054
:1049C00085C19052492F50E0440F551F440F551F89
:1049D000440F551F660F660F660F70E0A82FB0E0FA
:1049E000213009F4B6C0FA01E356FE4F2491FB01D1
:1049F000EE0FFF1FEE0FFF1FCF01880F991F880FCB
:104A0000991FE80FF91FEA0FFB1FE950FC4F2083A5
:104A1000FA01E256FE4F24916F5F7F4FFB01EE0FCC
:104A2000FF1FEE0FFF1FCF01880F991F880F991FDF
:104A3000E80FF91FEA0FFB1FE950FC4F2083FA0132
:104A4000E156FE4F24916F5F7F4FFB01EE0FFF1F7A
:104A5000EE0FFF1FCF01880F991F880F991FE80FD6
:104A6000F91FEA0FFB1FE950FC4F2083FA01E056C3
:104A7000FE4F24916F5F7F4FFB01EE0FFF1FEE0F84
:104A8000FF1FCF01880F991F880F991FE80FF91F8B
:104A9000EA0FFB1FE950FC4F2083FA01EF55FE4F50
:104AA00024916F5F7F4FFB01EE0FFF1FEE0FFF1F83
:104AB000CF01880F991F880F991FE80FF91FEA0F80
:104AC000FB1FE950FC4F2083FA01EE55FE4F249165
:104AD0006F5F7F4FFB01EE0FFF1FEE0FFF1FCF0138
:104AE000880F991F880F991FE80FF91FEA0FFB1F06
:104AF000E950FC4F2083FA01ED55FE4F24916F5F82
:104B00007F4FFB01EE0FFF1FEE0FFF1FCF01880F3E
:104B1000991F880F991FE80FF91FEA0FFB1FE95033
:104B2000FC4F20834C555E4FFA012491FB013196D6
:104B3000EE0FFF1FEE0FFF1FCF01880F991F880F89
:104B4000991FE80FF91FEA0FFB1FE950FC4F208364
:104B50000895FA01E356FE4F2491FB01EE0FFF1F6B
:104B6000EE0FFF1FCF01880F991F880F991FE80FC5
:104B7000F91FEA0FFB1FE950FC4F20952083FA0133
:104B8000E256FE4F24916F5F7F4FFB01EE0FFF1F38
:104B9000EE0FFF1FCF01880F991F880F991FE80F95
:104BA000F91FEA0FFB1FE950FC4F20952083FA0103
:104BB000E156FE4F24916F5F7F4FFB01EE0FFF1F09
:104BC000EE0FFF1FCF01880F991F880F991FE80F65
:104BD000F91FEA0FFB1FE950FC4F20952083FA01D3
:104BE000E056FE4F24916F5F7F4FFB01EE0FFF1FDA
:104BF000EE0FFF1FCF01880F991F880F991FE80F35
:104C0000F91FEA0FFB1FE950FC4F20952083FA01A2
:104C1000EF55FE4F24916F5F7F4FFB01EE0FFF1F9B
:104C2000EE0FFF1FCF01880F991F880F991FE80F04
:104C3000F91FEA0FFB1FE950FC4F20952083FA0172
:104C4000EE55FE4F24916F5F7F4FFB01EE0FFF1F6C
:104C5000EE0FFF1FCF01880F991F880F991FE80FD4
:104C6000F91FEA0FFB1FE950FC4F20952083FA0142
:104C7000ED55FE4F24916F5F7F4FFB01EE0FFF1F3D
:104C8000EE0FFF1FCF01880F991F880F991FE80FA4
:104C9000F91FEA0FFB1FE950FC4F209520834C556C
:104CA0005E4FFA012491FB013196EE0FFF1FEE0FCC
:104CB000FF1FCF01880F991F880F991FE80FF91F59
:104CC000EA0FFB1FE950FC4F2095208308952F9297
:104CD0003F924F925F926F927F928F929F92AF928C
:104CE000BF92CF92DF92EF92FF920F931F93DF93C9
:104CF000CF93CDB7DEB72A970FB6F894DEBF0FBEBD
:104D0000CDBF8B836C834D8379010E83E42FF0E05C
:104D1000EE0FFF1FEE0FFF1F84E1689F900111242B
:104D20003A832983CF0183569B4FD02EE156FB4F08
:104D30006491662E7724FC018491A82EBB24C62E94
:104D400013014501230178866F8216C08D2D90E0F6
:104D500001972F813885AC01249FC001259F900DBC
:104D6000349F900D11244D816C815B81850F0E94D1
:104D7000EC1FDA9409F46EC0E114F10419F4FE8119
:104D8000DF1621F78D2D90E00197DC016A9EC001AE
:104D90006B9E900D7A9E900D1124BB818B0FE98143
:104DA000FA81E80FF11DFA87E987C7016AE070E030
:104DB0000E941C3290E023E630E0829FA001839F96
:104DC000500D929F500D11249C01220F331F280F6C
:104DD000391FF901EE0FFF1FEE0FFF1FEE0FFF1F30
:104DE000E21BF30BEE0FFF1F3D81332309F04BC095
:104DF0008A0103591E4E20E030E00AC049855A85D9
:104E00004B5E5F4F441955095A8749870F5F1F4F03
:104E100028153905B0F4F8018491E985FA85E9503F
:104E2000FC4F80832F5F3F4FC9016C2D70E00E94C3
:104E30001C32892B19F389859A8501969A8789876F
:104E4000E5CFC7016AE070E00E941C327B01DA9472
:104E500009F092CF2A960FB6F894DEBF0FBECDBFF1
:104E6000CF91DF911F910F91FF90EF90DF90CF9046
:104E7000BF90AF909F908F907F906F905F904F907A
:104E80003F902F9008958F01055B1A4E20E030E08F
:104E900008C049855A854F5F5F4F5A8749870F5F22
:104EA0001F4F2A153B0568F6F8018491E985FA85BC
:104EB000E950FC4F80832F5F3F4FC9016C2D70E09C
:104EC0000E941C32892B29F789859A85459682197B
:104ED00093099A878987E3CFECE7F0E080818F77A9
:104EE000808380818F7B808380818F7D80838081A0
:104EF000807E8083EAE7F0E08081887F8083808104
:104F00008660808380818F7D808381E08093200113
:104F100008958835D1F081B3887F81BB81B38760E4
:104F200081BB459880B3887F80BB829A3D9A8091EF
:104F30007C00807E80937C0080917C008E7F8093BB
:104F40007C0081E080932001089581B3887F81BB3C
:104F5000459881B3856081BB459A80B3887F80BBCB
:104F60003D9880B3836080BB80917C00807E80937D
:104F70007C0080917C00826080937C0081E0809343
:104F800020010895EAE7F0E0808180688083089539
:104F900010922001EAE7F0E080818F778083089506
:104FA000582F20E030E044E080917A0080648093C4
:104FB0007A0080917A008F7D80937A0080917A00C8
:104FC00084FFFCCF80917A00806180937A00809189
:104FD000780090917900280F391F415028F75835F3
:104FE00051F0C90165E070E00E941C3270937810A6
:104FF000609377100895C90165E070E00E941C324B
:1050000070937A106093791008958091200188231D
:1050100009F4089580917A008F7780937A0081B3A4
:10502000887F81BB459881B3856081BB459A80B3F9
:10503000887F80BB3D9880B3836080BB80917C007B
:10504000807E80937C0080917C00826080937C00D5
:1050500080917A00806880937A0020E030E045E01B
:1050600080917A00806480937A0080917A008F7DAD
:1050700080937A0080917A0084FFFCCF80917A003F
:10508000806180937A008091780090917900280F58
:10509000391F415029F7C90165E070E00E941C32B8
:1050A00070937A106093791080917A008F77809353
:1050B0007A0081B3887F81BB81B3876081BB4598CB
:1050C00080B3887F80BB829A3D9A80917C00807EED
:1050D00080937C0080917C008E7F80937C0081E0B7
:1050E0008093200180917A00806880937A0020E08C
:1050F00030E044E080917A00806480937A0080916F
:105100007A008F7D80937A0080917A0084FFFCCFB3
:1051100080917A00806180937A00809178009091EC
:105120007900280F391F415028F7C90165E070E068
:105130000E941C327093781060937710089510923B
:1051400082101092811010927C1081E08093801068
:1051500080937B1010927D1080937E10109221011D
:1051600010927F10089581E080932101089510929C
:10517000210108958630A9F0873050F0893089F0F8
:10518000893020F08B3069F08B30D8F48FE10895AE
:105190008330E1F3843038F0843019F08530B1F396
:1051A00008958EE10895813089F38230C9F7862F02
:1051B00090E083709070892B11F08CE108958DE15F
:1051C00008958C3019F308950F931F938091210156
:1051D000882339F080917C108B3331F08F5F80937E
:1051E0007C101F910F91089510927C108091811076
:1051F0008B3331F08F5F809381101F910F91089551
:105200001092811080918210873121F08F5F8093FE
:105210008210E7CF1092821000917D1010917B10C8
:10522000602F812F0E94BA2890918010891759F021
:105230009F5F9093801080917E10873069F08F5F20
:1052400080937E10CECF81E0809380101C3041F09F
:105250001F5F10937B10EFCF81E080937E10C1CF52
:1052600080937B100F5F00937D10E5CFECE7F0E0BB
:1052700080818F77808380818F7B80838081807E17
:105280008083808183608083EAE7F0E08081887F8B
:10529000808380818760808310928A1010928910A9
:1052A0001092881010928710089580917A0080687B
:1052B00080937A0080917A00806480937A0020E065
:1052C00030E042E080917A00806480937A0080919F
:1052D0007A008F7D80937A0080917A0084FFFCCFE2
:1052E00080917A00806180937A008091780090911B
:1052F0007900280F391F415029F7C90164E170E096
:105300000E941C3287E890E0689F9001699F300DF1
:10531000789F300D112489E22E30380758F08AE149
:1053200094E090938A108093891080918610813048
:1053300071F00895C9016AE070E00E941C32709318
:105340008A106093891080918610813091F7809146
:10535000891090918A109C01220F331F220F331F56
:10536000220F331F880F991F820F931F69E670E089
:105370000E941C3270938A106093891008959C01DA
:105380006F3608F06EE62C33310510F420E030E083
:10539000673008F453C0C901880F991F880F991FFF
:1053A000880F991F220F331F820F931F70E00E94F6
:1053B0001C32FB0123E06F3D7207E8F1E7EEF3E0FA
:1053C0008091891090918A109C01220F331F220F27
:1053D000331F220F331F880F991F820F931FBF01A6
:1053E0000E941C3284E690E09C01629FC001639F92
:1053F000900D729F900D11249093881080938710C8
:105400008051974230F08FE097E29093881080931C
:105410008710CF016AE070E00E941C329B01CB0133
:105420006AE070E00E941C32309385102093841053
:105430008093831008956115710511F610928810FC
:105440001092871020E030E080E0309385102093A8
:10545000841080938310089582E18093B800ECEB70
:10546000F0E0808184608083808181608083089502
:1054700010928B10ECEBF0E0808180628083808161
:1054800080688083089581E080938B10ECEBF0E0DE
:1054900080818061808380818F7D8083808180682E
:1054A000808308958093BB00ECEBF0E080818068FE
:1054B000808308959C01F999FECF32BD21BDF89AF1
:1054C00080B508959C01F999FECF32BD21BD60BD24
:1054D0000FB6F894FA9AF99A0FBE08950F931F9396
:1054E000CF93DF9380918D10823008F450C02091CB
:1054F0009210223009F44BC0222309F04FC090E0F3
:10550000880F991F8C010859124DF801259134918B
:10551000AC014A59524DFA018591949128173907E7
:1055200009F437C0A0919410B091951060E080E02C
:1055300090E0FA01C591D491F801459154914C1B2A
:105540005D0B9C012C0F3D1FF901EE0FFF1FEE0FAD
:10555000FF1FEE0FFF1FE05FF24E85919491A81799
:10556000B90778F0F901EE0FFF1FEE0FFF1FEE0FE6
:10557000FF1FE25FF24E859194918A179B0708F016
:1055800056C06F5F862F90E084179507D0F2109277
:105590009310DF91CF911F910F9108958B30B8F741
:1055A00090E0880F991F8C010C56114DF801259140
:1055B0003491AC014E56514DFA0185919491821768
:1055C000930739F3A0919410B091951060E080E0BA
:1055D00090E0FA01C591D491F801459154914C1B8A
:1055E0005D0B9E01280F391FF901EE0FFF1FEE0F13
:1055F000FF1FEE0FFF1FEC5DF14D85919491A817F1
:10560000B90770F0F901EE0FFF1FEE0FFF1FEE0F4D
:10561000FF1FEE5DF14D859194918A179B07A8F4C9
:105620006F5F862F90E084179507D8F2B0CFF9010D
:10563000EE0FFF1FEE0FFF1FEE0FFF1FE45FF24E96
:105640008591949180939310A4CFF901EE0FFF1FE1
:10565000EE0FFF1FEE0FFF1FE05EF14D859194915D
:105660008093931096CF9C018731910510F026E12D
:1056700030E084EF91E0AC01249FC001259F900DA4
:10568000349F900D11246AE770E00E941C326093F1
:105690008D1088EE93E0AC01249FC001259F900DF2
:1056A000349F900D11246EE371E10E941C328091B1
:1056B0008E1090918F10860F971F90938F1080936C
:1056C0008E108091961090919710860F971F90934F
:1056D00097108093961008959695879590939510BE
:1056E0008093941021E0843F920750F0855C9940AC
:1056F00030F084EC99E09093951080939410089585
:105700001092951010929410089510929710109284
:10571000961008950F931F930AE51AE2B8018AE0E4
:1057200090E00E944C2D90938F1080938E10B801C2
:1057300084E690E00E944C2D9093971080939610F1
:105740001F910F9108950F931F9302E61AE2609143
:105750008E1070918F10A8018AE090E00E94622D57
:105760006091961070919710A80184E690E00E94D5
:10577000622D1F910F9108950F931F9310928D101A
:105780008CED95E090939510809394101092931067
:1057900082E080939110109292100AE51AE2B8010B
:1057A0008AE090E00E944C2D90938F1080938E1091
:1057B000B80184E690E00E944C2D9093971080935E
:1057C0009610109290101F910F910895FC01613076
:1057D00009F449C06330E9F0209137012093380182
:1057E0009091360190933701809135018093360175
:1057F000E0933501682F70E06E0F711D690F711D08
:10580000620F711D9B013695279536952795C90125
:1058100008954091310150913201509334014093E9
:10582000330120912F0130913001309332012093C8
:10583000310180912D0190912E0190933001809340
:105840002F01F0932E01E0932D01BF01680F791F06
:10585000620F731F640F751F9B0136952795369550
:105860002795C90108954091290150912A0150932B
:105870002C0140932B012091270130912801309376
:105880002A0120932901809125019091260190936E
:10589000280180932701F0932601E0932501BF01A1
:1058A000680F791F620F731F640F751F9B01369578
:1058B000279536952795C9010895809123018F5F1B
:1058C000809323010895109280001092810010921D
:1058D0008500109284001092900010929100109216
:1058E0009500109294001092220181E0809314019F
:1058F00008951092800010928100109285001092FD
:1059000084001092900010929100109295001092D5
:1059100094001092220156986E986C98EAE6F0E096
:1059200080818260808380818160808381E0809338
:1059300024018093140108951092140181E0809352
:10594000220110923A0110923901109280001092B7
:105950008500109284001092900010929500109291
:1059600094001092230108958091140108958130CC
:1059700029F0833079F08530C9F0089520913B01FA
:1059800030913C01C901880F991F880F991F820F20
:10599000931F089520913D0130913E01C901880F68
:1059A000991F880F991F820F931F089520913F011F
:1059B00030914001C901880F991F880F991F820FEC
:1059C000931F08951F9380912401882321F0109143
:1059D0002201113011F01F910895809139019091A9
:1059E0003A01009769F487E08093810080939100E9
:1059F000EC9A81E090E090933A0180933901EBCFEB
:105A0000019690933A0180933901815D974019F78F
:105A10001092810010929100EC9810922201109344
:105A20001401809184009091850061E00E94E62B32
:105A300090933C0180933B0180919400909195005C
:105A400063E00E94E62B90933E0180933D0165E068
:105A50008091230190E00E94E62B90934001809377
:105A60003F010E94332B10921401109322011092D7
:105A70003A01109239011092800010928500109224
:105A80008400109290001092950010929400109251
:105A90002301A1CFF894FFCFDF92EF92FF920F93F3
:105AA0001F937B018C01FB010995D82EC80101963B
:105AB000F7010995982F8D2D1F910F91FF90EF9071
:105AC000DF900895DF92EF92FF920F931F93D72EEE
:105AD0007A018C01FA0109956D2DC8010196F70133
:105AE00009951F910F91FF90EF90DF900895AEE020
:105AF000B0E0EDE7FDE20C943E320D891E8986E0B0
:105B00008C831A8309838FEF9FE79E838D83CE0159
:105B10004996AC016F89788DCE0101960E949A2D2D
:105B20002F813885020F131FF80110822E96E4E0B2
:105B30000C945A32ABE0B0E0E0EAFDE20C94303273
:105B40003C012B015A01FC0117821682838181FDE1
:105B500003C06FEF7FEFC8C19AE0892E1E01089441
:105B6000211C311CF3012381F20123FD859123FFC8
:105B700081912F01882309F4B4C1853239F423FDC2
:105B8000859123FF81912F01853229F4B30190E0A3
:105B90000E948F2FE7CF982FDD24CC249924FFE19A
:105BA000FD15D0F09B3269F09C3228F4903259F008
:105BB000933291F40EC09D3249F0903369F441E084
:105BC00024C052E0D52A84E0D82A28C098E0D92AF7
:105BD00025C0E0E1DE2A22C0D7FC29C0892F8053EE
:105BE0008A3070F4D6FE05C0989C902C1124980E33
:105BF00015C0C89CC02C1124C80EF0E2DF2A0EC0CC
:105C00009E3229F4D6FC6DC140E4D42A07C09C36EC
:105C100019F450E8D52A02C0983649F4F20123FD60
:105C2000959123FF91912F01992309F0B8CF892FE6
:105C30008554833018F08052833038F444E050E0CB
:105C4000A40EB51E5FE359830FC0933631F093372E
:105C500079F0933509F056C020C0F5018081898321
:105C600042E050E0A40EB51E710101E010E012C048
:105C7000F501E080F180D6FC03C06FEF7FEF02C03A
:105C8000692D70E042E050E0A40EB51EC7010E94ED
:105C9000842F8C015FE7D52214C0F501E080F180EC
:105CA000D6FC03C06FEF7FEF02C0692D70E042E0C9
:105CB00050E0A40EB51EC7010E94792F8C0150E858
:105CC000D52AD3FE07C01AC0B30180E290E00E943B
:105CD0008F2FCA948C2D90E008171907A8F30EC0D7
:105CE000F701D7FC8591D7FE81917F01B30190E048
:105CF0000E948F2FC110CA94015010400115110548
:105D000079F7ECC0943611F0993671F5D7FE08C0DA
:105D1000F501E080F1800281138144E050E00AC087
:105D2000F501808191817C010027F7FC0095102FFF
:105D300042E050E0A40EB51E5FE6D52217FF0AC070
:105D400010950095F094E094E11CF11C011D111DCB
:105D500080E8D82A2AE030E0A101C801B7010E94FA
:105D6000BB2FF82EF21840C0953729F41D2D1F7E49
:105D70002AE030E01DC01D2D197F9F3661F090375D
:105D800020F4983509F0ADC00FC0903739F098373E
:105D900009F0A7C004C028E030E00AC0106114FD7B
:105DA000146020E130E004C014FD166020E132E010
:105DB00017FF08C0F501608171818281938144E001
:105DC00050E008C0F50180819181BC0180E090E045
:105DD00042E050E0A40EB51EA1010E94BB2FF82E98
:105DE000F2188FE7D82ED122D6FE0BC05EEFD52257
:105DF000F91438F4D4FE07C0D2FC05C08FEED822C7
:105E000002C01F2D01C0192DD4FE0DC0FE01EF0DE3
:105E1000F11D8081803319F499EED92208C01F5FEB
:105E2000D2FE05C003C08D2D867809F01F5F0D2DB1
:105E3000D3FC14C0D0FE0FC01C1510F09F2C0BC05B
:105E40009F2C9C0C911A1C2D06C0B30180E290E09F
:105E50000E948F2F1F5F1C15C0F304C01C1510F487
:105E6000C11A01C0CC2404FF10C0B30180E390E04C
:105E70000E948F2F02FF1EC001FD03C088E790E043
:105E800002C088E590E0B3010CC0802F867891F0C5
:105E900001FF02C08BE201C080E2D7FC8DE2B301BA
:105EA00090E00E948F2F06C0B30180E390E00E9433
:105EB0008F2F9A94F914C0F3FA94F101EF0DF11DAC
:105EC000B301808190E00E948F2FFF20A9F706C0C8
:105ED000B30180E290E00E948F2FCA94CC20C1F7DA
:105EE00041CEF30166817781CB012B96E2E10C94E0
:105EF0004C32FC010590615070400110D8F780953C
:105F000090958E0F9F1F0895FC0161507040019085
:105F10000110D8F7809590958E0F9F1F08950F93CD
:105F20001F93CF93DF938C01EB018B8181FF1BC00B
:105F300082FF0DC02E813F818C819D8128173907FA
:105F400064F4E881F9810193F983E88306C0E88568
:105F5000F985802F0995892B31F48E819F810196D7
:105F60009F838E8302C00FEF1FEFC801DF91CF9197
:105F70001F910F910895FA01AA27283051F120317D
:105F800081F1E8946F936E7F6E5F7F4F8F4F9F4FCD
:105F9000AF4FB1E03ED0B4E03CD0670F781F891F0F
:105FA0009A1FA11D680F791F8A1F911DA11D6A0FDD
:105FB000711D811D911DA11D20D009F468943F9190
:105FC0002AE0269F11243019305D3193DEF6CF018F
:105FD0000895462F4770405D4193B3E00FD0C9F755
:105FE000F6CF462F4F70405D4A3318F0495D31FDC2
:105FF0004052419302D0A9F7EACFB4E0A695979515
:10600000879577956795BA95C9F7009761057105EA
:1060100008959B01AC010A2E069457954795379534
:106020002795BA95C9F7620F731F841F951FA01D8E
:106030000895DF93CF93BF93AF939F93D0E1CBE9C4
:106040009FB7AE81AF5FAE8360F0AA81BB81BA2BF0
:1060500041F4CDB7DEB7FE81EF812996CDBFDEBF1B
:1060600009948F937F936F935F934F933F932F93F5
:106070001F930F93FF92EF92DF92CF92BF92AF9256
:106080009F928F927F926F925F924F923F922F9248
:106090001F920F929F93CDB7DEB79B8D39A148A178
